:100000000C9434000C943E000C943E000C943E0082
:100010000C943E000C943E000C943E000C943E0068
:100020000C943E000C943E000C943E000C943E0058
:100030000C943E000C943E000C943E000C943E0048
:100040000C943E000C943E000C943E000C943E0038
:100050000C943E000C943E000C943E000C943E0028
:100060000C943E000C943E0011241FBECFEFD8E04C
:10007000DEBFCDBF0E9450000C9471000C940000B4
:1000800087B1876087B987B1877E87B9439A08951A
:1000900098B1987F98B998B18770982B98B90895BE
:1000A0000E94400080E00E944800C0E03399FECFEB
:1000B0002FEF89EF90E0215080409040E1F700C0A1
:1000C0000000CF5F8C2F0E944800339BFECF2FEFA4
:1000D00089EF90E0215080409040E1F700C000009F
:0600E000E5CFF894FFCF0C
:00000001FF
